:020000040800F2
:10000000D00B0020012300080105000803050008AB
:10001000070500080B0500080F0500080000000098
:1000200000000000000000000000000013050008B0
:100030001505000800000000170500081905000854
:100040001B2300081B2300081B2300081B23000898
:100050001B2300081B2300081B2300081B23000888
:100060001B2300081B2300081B2300081B23000878
:100070001B2300081B2300081B2300081B23000868
:100080001B2300081B2300081B2300081B23000858
:100090001B2300081B2300081B2300081B23000848
:1000A0001B2300081B2300081B2300081B23000838
:1000B000CB0900081B2300081B2300081B23000892
:1000C0001B2300081B2300081B2300081B23000818
:1000D0001B230008772200089513000887120008E8
:1000E0001B2300081B2300081B2300081B230008F8
:1000F0001B2300081B2300081B2300081B230008E8
:100100001B2300081B2300081B2300081B230008D7
:100110001B2300081B2300081B230008870A000874
:100120001B2300081B2300081B2300081B230008B7
:100130001B2300081B2300081B2300081B230008A7
:100140001B2300081B2300081B2300081B23000897
:100150001B2300081B2300081B2300081B23000887
:100160001B2300081B2300081B2300081B23000877
:100170001B2300081B2300081B2300081B23000867
:100180001B2300081B23000800F002F800F061F8B0
:100190000AA090E8000C82448344AAF10107DA45E2
:1001A00001D100F056F8AFF2090EBAE80F0013F0D3
:1001B000010F18BFFB1A43F001031847504E00000F
:1001C000704E00000A444FF0000C10F8013B13F091
:1001D000070408BF10F8014B1D1108BF10F8015BA0
:1001E000641E05D010F8016B641E01F8016BF9D193
:1001F00013F0080F1EBF10F8014BAD1C0C1B09D1EA
:100200006D1E58BF01F801CBFAD505E014F8016B5B
:1002100001F8016B6D1EF9D59142D6D370470000ED
:100220000023002400250026103A28BF78C1FBD8FF
:10023000520728BF30C148BF0B607047642903F0E4
:100240001986002070471FB504F0CEFA1FBD10B507
:1002500010BD03F05DFF1146FFF7F5FF00F008F851
:1002600003F07BFF03B4FFF7F2FF03BC01F0A4FF30
:1002700008B54FF4A06002F063F8A82001F01AFF5F
:100280004FF4E13001F0A5FF4FF4165001F030F8C3
:100290004FF4E13000F0A4FF00F048FA01F0D6F985
:1002A00001F04EFA01F084FE01F078FC532144F68F
:1002B0001F6000F05BFA532144F61F6000F0DBFA88
:1002C00042F2CF01092000F053FBB3E000207C494B
:1002D000087001F063FC1AE001F0CDF9784908706C
:1002E000102001230090084602780221002001F02E
:1002F00011FD102003230090724890ED000ABCEE1F
:10030000C00A10EE102A0021084601F0BFFC6C481C
:1003100000780028E0D0102001230090684802787F
:100320000221002001F0F6FC002067490860C82087
:1003300001F022FF01206549C1F89402604800786D
:10034000062873D2DFE800F07203326F707100F09C
:10035000FAFD00F078FE26E05D480078012806D11D
:1003600000205B49087000F0A1FB00F016FD0120A1
:100370005849087058480078012807D1002056498C
:10038000087056480068401C54490860534800688B
:10039000B0F5967F07D10020504908604D4908709C
:1003A00000F038FE00E0D7E700BF42E000F0CBFDF0
:1003B00000F049FE33E046480078012806D10020CD
:1003C0004349087000F072FB00F0E7FC012041494E
:1003D000087041480078012807D100203E49087084
:1003E0003E480068401C3D4908603C48006864285D
:1003F00002D101203A49087038480068782802D1B3
:1004000000203749087035480068C82807D1002007
:10041000324908602F49087000F0FCFD00E0CAE78F
:1004200000BF06E002E004E003E002E000F0F2FDBD
:1004300000BF00BF4AE710B5224890ED000ABDEEAC
:10044000C00A10EE101A27A003F0E0FC274801684C
:1004500027A003F0DBFC2848016825A003F0D6FCA8
:1004600026A003F0D3FC10BD08B510200323009094
:10047000144890ED000ABCEEC00A10EE102A0021CC
:10048000084601F003FC10200223009017480021C9
:100490000268282001F03EFC10200223009016483C
:1004A00000210268502001F035FC1020022300904A
:1004B0000A4819460268322001F02CFC08BD0000F1
:1004C00000000020740000209402424200004242DA
:1004D0000600002005000020040000200C00002081
:1004E0000700002025356420200000007C0000204B
:1004F0002532642020000000800000200A00000057
:10050000704700BFFEE700BFFEE700BFFEE700BF89
:10051000FEE7704770477047704700000CB5002039
:10052000019000907648006840F48030744908607B
:1005300000BF7348006800F4003000900198401C30
:100540000190009818B90198B0F5A04FF1D16C480E
:10055000006800F4003010B10120009001E000209C
:1005600000900098012846D165484030006840F06E
:1005700080506349403108606248006840F4404060
:10058000604908605E48083000685D4908310860CD
:100590000846006840F4004008600846006840F4DF
:1005A000A05008605848091F0860081F006840F004
:1005B0008070091F086000BF5148006800F000709B
:1005C0000028F9D040F20570504908604C480830C6
:1005D000006820F003004A490831086008460068B6
:1005E00040F00200086000BF45480830006800F095
:1005F0000C000828F8D10CBD10B54548006840F43F
:100600007000434908603E48006840F001003C49E2
:10061000086000203A4908310860394800683D49BF
:100620000840374908603C48091D0860081F0068F9
:1006300020F48020091F0860002031490C31086037
:10064000FFF76CFF4FF0006031498039086010BD42
:1006500070B500200022022300240221284D083515
:100660002D6805F00C0020B1042806D0082834D1EC
:1006700007E02A4D2A4E356033E02A4D284E35607A
:100680002FE01F4D2D1D2D68C5F380541C4D2D1DD1
:100690002D6805F03F0154B1224DB5FBF1F5184E20
:1006A000361D3668C6F3881605FB06F209E01B4DB9
:1006B000B5FBF1F5124E361D3668C6F3881605FBFC
:1006C00006F20F4D2D1D2D68C5F301456D1C6B0005
:1006D000B2FBF3F5124E356003E0104D104E35605D
:1006E00000BF00BF064D08352D68C5F303150E4E3B
:1006F000705D0B4D2D68C540094E356070BD000022
:10070000003802400070004019544007003C02408D
:1007100088ED00E0FFFFF6FE103000240024F40016
:100720001000002040787D01140000201CB501213C
:10073000102003F015FA2020009001208DF804000D
:1007400000208DF8060003208DF8050001208DF8AB
:1007500007006946034801F0E9FE012002490860EC
:100760001CBD0000001002409402424230B58BB024
:1007700004460D460121022003F03BFA012103202B
:1007800003F0EEF902220621754801F05AFF022219
:100790000721734801F055FF02220021714801F042
:1007A00050FF022201216F4801F04BFFC020099049
:1007B00002208DF8280003208DF8290000208DF8F4
:1007C0002A0001208DF82B0009A9654801F0AEFE32
:1007D0000320099002208DF8280003208DF82900BD
:1007E00000208DF82A0001208DF82B0009A95D4812
:1007F00001F09CFEA8B2ADF818000020ADF81A0078
:100800000794ADF8200006A9574802F02AFA6020A4
:10081000ADF804000120ADF8060000200390ADF80B
:10082000100001A9504802F0B1FA01A94E4802F0A7
:10083000E6FA01A94C4802F02FFB01A94A4802F050
:1008400091FB0821484802F02EFC0821464802F09E
:1008500033FC0821444802F03CFC0821424802F0E5
:1008600041FC0121404802F067FA01213E4802F0B4
:1008700081FA0BB030BD30B58BB004460D46012176
:10088000042003F0B6F90121022003F069F90222E5
:100890000621344801F0D5FE02220721314801F03B
:1008A000D0FE022208212F4801F0CBFE02220921AE
:1008B0002C4801F0C6FE4FF47070099002208DF8AC
:1008C000280003208DF8290000208DF82A0001203F
:1008D0008DF82B0009A9234801F028FEA8B2ADF835
:1008E00018000020ADF81A000794ADF8200006A902
:1008F0001E4802F0B6F96020ADF804000120ADF802
:10090000060000200390ADF8100001A9174802F07E
:100910003DFA01A9154802F072FA01A9134802F044
:10092000BBFA01A9114802F01DFB08210F4802F093
:10093000BAFB08210D4802F0BFFB08210B4802F06A
:10094000C8FB0821094802F0CDFB0121074802F04D
:10095000F3F90121054802F00DFA0BB030BD00009B
:100960000000024000040240000400400008004073
:100970007FB505460C460121084603F03AF9029579
:10098000ADF804400020ADF80600ADF80C0001A958
:100990004FF0804002F065F901221146900702F005
:1009A00001FE0121880702F0E5F91C208DF8000006
:1009B00001208DF8010002208DF8020001208DF841
:1009C0000300684601F0C1FC7FBD10B50121880716
:1009D00002F0FFFD01282BD10121800702F00AFE61
:1009E0002C480068401C2B49086008460068142801
:1009F00014D10120284908700020264908602748A2
:100A00000078012804D126480068401C2449086069
:100A10002248007810B90020214908602048006869
:100A2000052805D101201F49087000201C490860D5
:100A300010BD1FB50121202003F0DBF840200290FB
:100A40000020ADF80400ADF80C00ADF8060001A9D7
:100A5000154802F006F901221146134802F0A2FDE2
:100A60000121114802F086F937208DF8000000209E
:100A70008DF8010001208DF802008DF80300684612
:100A800001F063FC1FBD10B50121074802F0A1FD74
:100A900010BD0000240000200300002005000020FD
:100AA00028000020040000200014004010B52DEDA7
:100AB0000A8B9FEDFE0AF0EE409A9FEDFD0AB0EE24
:100AC00040AA9FEDFC0AF0EE40AA9FEDF80AB0EEB6
:100AD00040BA9FEDF70AF0EE40BA9FEDF70AB0EE8C
:100AE00040CAF6480068404200EE100AB8EEC00A5C
:100AF000F348D0ED000A20EE200ADFEDF20A80EE86
:100B0000201A9FEDF10A30EE410AF0EE408AEF48DC
:100B100090ED000A38EEC00ADFEDED0A80EE201AF3
:100B2000F0EE41CAC0ED008A9FEDEA0AF4EEC08AF9
:100B3000F1EE10FA0AD89FEDE80AF4EEC08AF1EE61
:100B400010FA03DB0020E549087002E00120E349C8
:100B5000087029EEA80AE24880ED000A2AEEAC0AE5
:100B6000E04880ED000AE04890ED000A0AEE280A0D
:100B700080ED000A90ED000AF0EE040AB4EEE00AFF
:100B8000F1EE10FA03DDB0EE040A80ED000AD6485B
:100B900090ED000AF8EE040AB4EEE00AF1EE10FA65
:100BA00003D2B8EE040A80ED000ACD4890ED000AA9
:100BB000CC48D0ED000A30EE200AC848007800EE9C
:100BC000900AF8EE600AC84890ED001A00EE810A1B
:100BD000C64880ED000A90ED000AF2EE040AB4EE79
:100BE000E00AF1EE10FA03DDB2EE040A80ED000A2D
:100BF000BE4890ED000AFAEE040AB4EEE00AF1EE07
:100C000010FA03D2BAEE040A80ED000AB74890ED5C
:100C1000000AF3EE060A20EE200A80ED000AB4482E
:100C20000068404200EE100AB8EEC00AA448D0EDB9
:100C3000000A20EE200ADFEDA30A80EE201A9FEDC5
:100C4000A20A30EE418AAB4890ED000A38EE400A25
:100C5000DFED9F0A80EE209A80ED008A9FED9D0ACD
:100C6000B4EEC08AF1EE10FA0AD89FED9B0AB4EEFA
:100C7000C08AF1EE10FA03DB00209F49087002E001
:100C800001209D4908702BEE080A9C4880ED000A5F
:100C90002CEE090A9A4880ED000A9A4890ED000A65
:100CA0000BEE880A80ED000A90ED000AF0EE040ACF
:100CB000B4EEE00AF1EE10FA03DDB0EE040A80EDC6
:100CC000000A904890ED000AF8EE040AB4EEE00A3B
:100CD000F1EE10FA03D2B8EE040A80ED000A87485C
:100CE00090ED000A8648D0ED000A30EE200A8248D6
:100CF000007800EE900AF8EE600A824890ED001A43
:100D000000EE810A804880ED000A90ED000AF2EEC4
:100D1000040AB4EEE00AF1EE10FA03DDB2EE040AC2
:100D200080ED000A784890ED000AFAEE040AB4EE6D
:100D3000E00AF1EE10FA03D2BAEE040A80ED000ADE
:100D4000714890ED000AF3EE060A20EE200A80EDCD
:100D5000000A664890ED000ADFED6C0A30EE200ACA
:100D6000BCEEC00A10EE101A694802F068F9664835
:100D700090ED000ADFED650A30EE200ABCEEC00AF5
:100D800010EE101A624802F05EF940F2E15160483C
:100D900002F05BF9BDEC0A8B10BD10B5484890ED30
:100DA000000ADFED5C0AB4EEE00AF1EE10FA05DDB0
:100DB00040F21451564802F044F914E0404890EDD6
:100DC000000ADFED550AB4EEE00AF1EE10FA05D2A2
:100DD00040F2CC614E4802F034F904E040F2DC51BC
:100DE0004B4802F02EF910BD10B540F2DC514848D6
:100DF00002F025F94FF47A71454802F022F940F2E9
:100E0000DC51434802F01FF94FF47A71404802F078
:100E10001CF94FF47A71414802F011F94FF47A71DC
:100E20003E4802F00EF94FF47A713C4802F00BF99B
:100E30004FF47A71394802F008F940F6B83001F001
:100E40009BF910BD10B540F2DC51314802F0F7F8C3
:100E50004FF47A712E4802F0F4F840F2DC512C483D
:100E600002F0F1F84FF4FA61294802F0EEF84FF47D
:100E70007A712A4802F0E3F84FF47A71274802F0B9
:100E8000E0F84FF47A71254802F0DDF84FF47A71FA
:100E9000224802F0DAF84FF47A6001F06DF940F27E
:100EA000DC511B4802F0D1F83AE00000C520B03D0B
:100EB00017B7D1391B2FDD3CA69BC43C7C0000201A
:100EC000740000200000C842000000003000002034
:100ED0006F12833C00004842000048C259000020C5
:100EE000380000203C00002040000020500000207E
:100EF0008000002034000020580000204400002022
:100F0000480000204C000020540000200080BB441A
:100F1000000400400000B4420000A042000800406D
:100F20004FF47A7001F028F940F21451574802F05A
:100F300088F84FF4FA7001F01FF94FF47A715348B2
:100F400002F07FF810BD70B52DED028B4FF47A746E
:100F5000192510234EA20421002000F0DBFF40F6EB
:100F6000B83001F009F910234BA20421002000F051
:100F7000D1FFFFF767FF4A4890ED000ABDEEC00AB7
:100F8000B0EE408A39E02146404802F05AF82C443D
:100F9000B4F5E16F01DB4FF4E164642001F0ECF89B
:100FA0003F4890ED000AF8EEC80A30EE600AF7EE0E
:100FB000000AB4EEE00AF1EE10FA01DD00250A3C69
:100FC000374890ED000AF3EE090AB4EEE00AF1EEBC
:100FD00010FA01DDFFF76AFD314890ED000ABDEE21
:100FE000C00AB0EE408A40F20461284802F027F8B7
:100FF00040F2FA51254802F026F8294890ED000AFF
:10100000F3EE090AB4EEE00AF1EE10FABBD3BDEC40
:10101000028B70BD10B5102322A20421002000F025
:1010200079FF00240AE0641C4FF4A061174802F025
:1010300008F8142001F0A0F8FFF738FDC82CF2DD05
:10104000FFF7D2FE10BD10B5102319A20421002015
:1010500000F060FF40F2DC51174801F0F0FF05207E
:1010600001F08AF840F2DC51084801F0EAFF40F252
:101070001451064801F0E5FF0F2001F07DF840F221
:10108000DC51024801F0DDFF10BD0000000400400B
:101090005374617274000000556E6C6F636B0000D6
:1010A000740000204C616E645F646F776E00000016
:1010B00048696768666978000008004070B5552186
:1010C0003B4801F011FC01203A4908703A48007889
:1010D00055286BD138484079AA2867D1374800781D
:1010E000002863D0002035490870354840783449DD
:1010F000097800EB01260A2096FBF0F000EE100ABA
:10110000B8EEC00A2F4880ED000A2B4880782A49A3
:10111000497800EB0124204600F062F90446B4F55A
:10112000004F03DBA4F57F44FF3C00E000BF2648EE
:101130000460214800792049C97800EB0125284640
:1011400000F094F90546B5F5004F03DBA5F57F45A2
:10115000FF3D00E000BF1D4805601D4800780228E3
:1011600020D11C48007801281CD11B48006858B9C0
:101170001648006818490968401A10F1320F03DA5E
:1011800000201449087003E06FF016000F49086052
:1011900040F20461114801F052FF40F2FA510F4849
:1011A00001F051FF094800680B49086070BD00005C
:1011B00000440040060000202C040020880000208D
:1011C00040040020740000207C00002080000020EB
:1011D00000000020070000208400002000040040E0
:1011E00010B588B004460121022002F0B9FC0121AB
:1011F000880402F0FEFC07220A21384801F021FA97
:1012000007220B21354801F01CFA4FF4406006908C
:1012100002208DF81C008DF81D0000208DF81E00A6
:1012200001208DF81F0006A92C4801F07FF90294D7
:101230000020ADF80C00ADF80E00ADF81000ADF8D0
:1012400014000C20ADF8120002A9254801F099FA0B
:101250000121234801F01DFB012240F225512048C5
:1012600001F0CDFB27208DF8040000208DF805004B
:1012700003208DF8060001208DF8070001A801F079
:1012800064F808B010BD10B51548008800F02000C3
:1012900008B31348001D00881249134A1278885475
:1012A0001148007830B908460F490978405C552844
:1012B00000D010BD0C480078401C0B49087008464F
:1012C0000078062807D1FFF7F9FE012007490870CA
:1012D00000200549087000BFEBE700000004024051
:1012E000004800402C0400208900002088000020D5
:1012F00010B588B004460121084602F031FC0121F6
:10130000480402F076FC07220221304801F099F9E6
:10131000072203212D4801F094F90C2006900220A9
:101320008DF81C008DF81D0000208DF81E00012096
:101330008DF81F0006A9254801F0F8F80294002056
:10134000ADF80C00ADF80E00ADF81000ADF81400CB
:101350000C20ADF8120002A91D4801F012FA01217B
:101360001B4801F096FA012240F22551184801F07D
:1013700046FB26208DF8040000208DF80500032090
:101380008DF8060001208DF8070001A800F0DDFFB0
:1013900008B010BD0E48008800F02000A8B10C482D
:1013A000001D00880B490C4A127888540A480078BE
:1013B000401C0949087008460078022805D1012020
:1013C0000649087000200449087070470000024078
:1013D00000440040400400208B0000208A000020D0
:1013E00070B503460022002193480068401E934DCB
:1013F00045F8203000BF06E0904D501C55F8200005
:1014000045F82200521C8C480068401E9042F3D8D8
:1014100000221EE0002115E0884850F821500646C1
:10142000481C56F8200085420BDD304650F821401C
:101430000546481C55F8200045F82100481C45F891
:101440002040491C7C480068401E801A8842E3D82E
:10145000521C79480068401E9042DBD876480068EC
:10146000401E4008754D55F8200070BD70B503460C
:101470000022002170480068401E714D45F8203060
:1014800000BF06E06E4D501C55F8200045F82200C4
:10149000521C69480068401E9042F3D800221EE0AA
:1014A000002115E0664850F821500646481C56F8C1
:1014B000200085420BDD304650F821400546481C8F
:1014C00055F8200045F82100481C45F82040491CEB
:1014D00059480068401E801A8842E3D8521C56487A
:1014E0000068401E9042DBD853480068401E400808
:1014F000534D55F8200070BDF0B503460020002183
:1015000000224D4E3668761E4E4F47F8263000BFFB
:1015100006E04C4F461C57F8266047F82060401CF8
:10152000454E3668761E8642F3D800201EE0002124
:1015300015E0444E56F82170B4464E1C5CF8266007
:10154000B7420BDD664656F8215037464E1C57F819
:10155000266047F821604E1C47F82650491C364E3D
:101560003668761E361A8E42E3D8401C324E3668F4
:10157000761E8642DBD8334E7668324F3F68F41BC6
:10158000012011E02F4F461C57F8266057F82070B5
:10159000F61BA64207DD2B4F461C57F8266057F86E
:1015A0002070F41B0246401C234E3668761E86428D
:1015B000E8D89FED250A561C1F4F3F687F1CB6EBED
:1015C000570F19D900200BE01E4E56F8206000EE90
:1015D000906AF8EEE00A70EE800AB0EE600A401CF5
:1015E0009042F1D9561C00EE906AF8EE600A80EE47
:1015F000201AB0EE410A1DE0501C0BE0114E56F8C7
:10160000206000EE906AF8EEE00A70EE800AB0EE1C
:10161000600A401C084E3668B042EFD3064E36686A
:10162000B61A761E00EE906AF8EE600A80EE201A76
:10163000B0EE410AF0BD00008C0000207C040020C8
:101640009004002054040020000000001CB501217B
:10165000102002F085FA1F20009000208DF8040071
:1016600003208DF8050001208DF8070069463348F6
:1016700000F05CFF1CBD10B5002401212F4800F0D4
:10168000B7FF98B102212D4800F0B2FF70B10421DC
:101690002A4800F0ADFF48B10821284800F0A8FF13
:1016A00020B11021254800F0A3FF20BB0A2000F044
:1016B00063FD0121214800F09BFF08B901241CE0D3
:1016C00002211E4800F094FF08B9022415E004210D
:1016D0001A4800F08DFF08B903240EE008211748CE
:1016E00000F086FF08B9042407E01021134800F039
:1016F0007FFF08B9052400E0002400BF01210F4846
:1017000000F076FF0028F9D002210C4800F070FFAD
:101710000028F3D00421094800F06AFF0028EDD02A
:101720000821064800F064FF0028E7D01021034894
:1017300000F05EFF0028E1D0204610BD00100240FE
:101740001CB50121102002F00BFA4FF440700090FC
:1017500001208DF8040000208DF8060003208DF88C
:10176000050001208DF8070069468E4800F0DEFE76
:101770004FF44070009001208B4908608B49C1F8FC
:10178000A4021CBD10B58748006820F4402085499C
:1017900008600846006840F4802008600120824903
:1017A000091D08608149C1F8A002022000F09CFCDC
:1017B00000207D49091D0860022000F095FC0020F2
:1017C0007A49C1F8A00210BD10B57648006820F42F
:1017D0004020744908600846006840F48020086092
:1017E0000020714908607149C1F8A402022000F08C
:1017F0007BFC01206C4908606C49C1F8A4020220FE
:1018000000F072FC10BD10B500246648006820F49A
:101810004020644908600846006808600120624969
:10182000091D086000F060FC01206049C1F8A002B9
:1018300000F05AFC07E0601CC4B2FA2C03DDFFF78D
:10184000C3FF012010BD58487C3800680028F2D141
:101850005549086000BFF5E710B5002052490860FF
:101860005048006820F440204E490860084600684F
:1018700040F48020086000204C49C1F8A4020420F4
:1018800000F032FC012048490860042000F02CFCE4
:1018900000204649C1F8A00210BD10B50020424901
:1018A00008604048006820F440203E49086008462F
:1018B000006840F48020086001203C49C1F8A4027F
:1018C000042000F011FC012037490860042000F0DA
:1018D0000BFC00203549C1F8A00210BD70B50446CC
:1018E0003048006820F440202E490860084600680F
:1018F00040F48020086000202B49086000251EE08D
:10190000E00920B101202849091D086003E00020FA
:101910002549091D08606006040E052000F0E4FB5F
:10192000012021490860052000F0DEFB00201F494E
:10193000C1F8A002052000F0D7FB681CC5B2082D35
:10194000DEDB70BD70B5054600241648006820F443
:10195000402014490860084600680860002616E028
:10196000002011490860052000F0BEFB01200F494E
:10197000C1F8A0026006040E0B487C38006808B16C
:10198000601CC4B2052000F0AFFB701CC6B2082E6C
:10199000E6DB15B9FFF781FF01E0FFF75DFF2046A9
:1019A00070BD000000100240A0024242000042420E
:1019B0007CB504460D461646C4F30900002839D10B
:1019C000A012A0F580108038092833D2DFE800F09B
:1019D000050A0F14191E23282D000121084602F0C4
:1019E000BFF828E00121022002F0BAF823E001212B
:1019F000042002F0B5F81EE00121082002F0B0F842
:101A000019E00121102002F0ABF814E001212020A0
:101A100002F0A6F80FE00121402002F0A1F80AE050
:101A20000121802002F09CF805E00121080202F06B
:101A300097F800E000BF00BF00958DF8046000201B
:101A40008DF8060001208DF8070002208DF80500B2
:101A50006946204600F06AFD2946204600F0E2FD76
:101A60007CBD10B501221146FC48FFF7A1FF012201
:101A70000221FA48FFF79CFF01220821F748FFF7EF
:101A800097FF01220421F548FFF792FF0122102160
:101A9000F248FFF78DFF10BD1CB50121042002F0B4
:101AA0005FF80420009000208DF8040003208DF8DA
:101AB000050001208DF807006946E94800F036FD71
:101AC0001CBD10B50446FFF75DFE7820FFF706FF4A
:101AD000FFF799FE4020FFF701FFFFF794FE204635
:101AE000FFF7FCFEFFF78FFEFFF76EFE10BD10B58F
:101AF0000446FFF747FE7820FFF7F0FEFFF783FE6E
:101B000008B100BFFEE70020FFF7E8FEFFF77BFE0D
:101B10002046FFF7E3FEFFF776FEFFF755FE10BD08
:101B200070B505460C461CB12846FFF7CAFF02E017
:101B30002846FFF7DCFF70BD70B504460D4605F082
:101B40000701B031C8B20021FFF7EAFF04F00F002F
:101B50000021FFF7E5FF102141EA14100021FFF7F3
:101B6000DFFF70BD10B500218D20FFF7D9FF0021E8
:101B70001420FFF7D5FF0021AF20FFF7D1FF10BDE4
:101B800010B500218D20FFF7CBFF00211020FFF7BB
:101B9000C7FF0021AE20FFF7C3FF10BD70B50024C2
:101BA00019E004F1B001C8B20021FFF7B9FF00212C
:101BB0000846FFF7B5FF00211020FFF7B1FF002511
:101BC00005E001210020FFF7ABFF681CC5B2802DA6
:101BD000F7DB601CC4B2082CE3DB70BD2DE9F047D5
:101BE00007460E469046994600250024A8F120009D
:101BF000C5B27F2F02DD0027B01CC6B2B9F1100FAD
:101C000024D131463846FFF797FF002408E004EB63
:101C10000511944A505C0121FFF782FF601CC4B299
:101C2000082CF4DB701CC1B23846FFF785FF002496
:101C300009E004EB051108318A4A505C0121FFF7E5
:101C40006FFF601CC4B2082CF3DB12E0314638464B
:101C5000FFF772FF00240AE005EB4501824A02EB20
:101C60004101085D0121FFF75BFF601CC4B2062C37
:101C7000F2DBBDE8F08710B50246012000E05043DA
:101C80000B1EA1F10104E1B2F9D110BD2DE9FF5FF6
:101C9000074691461E460E9D4FF0000A002435E08F
:101CA000301B401EC1B20A20FFF7E5FFB9FBF0F080
:101CB0000A21B0FBF1F201FB1208BAF1000F14D1B6
:101CC000701EA04211DDB8F1000F0CD1AB4605EB40
:101CD000DB71491001FB0471C8B22B462022019927
:101CE000FFF77CFF10E04FF0010AAB4605EBDB711C
:101CF000491001FB0471C8B208F13001CAB22B4689
:101D00000199FFF76BFF00BF601CC4B2B442C7DB90
:101D1000BDE8FF9F2DE9F84305460F461646984655
:101D2000089C002E13DB2346202239462846FFF765
:101D300055FFA14604EBD97105EB6101C8B24346DA
:101D4000324639460094FFF7A1FFBDE8F8832346E9
:101D50002D2239462846FFF741FFA14604EBD971F1
:101D600005EB6101C8B24346724239460094FFF761
:101D70008DFF00BFE9E72DE9F04F2DED068B81B017
:101D800005468A46B0EE408AF0EE608A16461F4647
:101D9000109C4FF0000951EC180B02F0B3FA80468A
:101DA000404602F0DEFA41EC1A0B53EC182B02F01D
:101DB00025FC41EC190B3346424651462846009417
:101DC000FFF7A8FFA34604EBDB714A10711C02FB6E
:101DD0000151C8B223462E225146FFF7FFFE20468E
:101DE00004EBD0714A10B11C02FB0151CDB22DE0C1
:101DF0009FED1E0B53EC102B51EC190B02F000FB66
:101E000041EC190B51EC190B02F07CFA804640466C
:101E100002F0A7FA41EC1A0B53EC192B02F0EEFB7F
:101E200041EC190BA34604EBDB71491001FB09518E
:101E3000C8B208F13001CAB223465146FFF7CEFEC0
:101E400009F1010000F0FF09781EC7B2002FCFD1C1
:101E500001B0BDEC068BBDE8F08F0000000C024025
:101E6000000802401A4A0008F2470008000000007B
:101E7000000024402DE9F0432DED028B81B0054692
:101E80000E46B0EE408AF0EE608A174698460A9CED
:101E90009FED850B53EC102B51EC180B02F074FAEC
:101EA00020D223462D2231462846FFF797FE51ECDB
:101EB000180B02F066F941EC180BA14604EBD9713E
:101EC00005EB6101C8B243463A46B0EE480AF0EE6F
:101ED000680A31460094FFF74EFF01B0BDEC028B5B
:101EE000BDE8F0832346202231462846FFF776FEE0
:101EF000A14604EBD97105EB6101C8B243463A46ED
:101F0000B0EE480AF0EE680A31460094FFF733FF5E
:101F100000BFE2E72DE9F04104460F46154698461A
:101F200000260FE0AA5D434639462046FFF756FEDD
:101F300004F10800C4B2782C02DD0024B81CC7B23A
:101F4000701CC6B2A85D0028ECD1BDE8F0812DE977
:101F5000F04180460E461546002731464046FFF7C1
:101F6000EBFD00240AE0524A02EB8511085D0121D5
:101F7000FFF7D6FD781CC7B2601CC4B2102CF2DB90
:101F8000701CC1B24046FFF7D7FD00240CE0690089
:101F9000491C474A02EB4111085D0121FFF7C0FDD2
:101FA000781CC7B2601CC4B2102CF0DBBDE8F08115
:101FB00010B54FF4FA7000F0DFF80021AE20FFF703
:101FC000AFFD00210846FFF7ABFD00211020FFF711
:101FD000A7FD00214020FFF7A3FD00218120FFF78E
:101FE0009FFD0021CF20FFF79BFD0021A120FFF7DF
:101FF00097FD0021C820FFF793FD0021A620FFF7E1
:102000008FFD0021A820FFF78BFD00213F20FFF767
:1020100087FD0021D320FFF783FD00210846FFF74D
:102020007FFD0021D520FFF77BFD00218020FFF7F9
:1020300077FD0021D920FFF773FD0021F120FFF784
:102040006FFD0021DA20FFF76BFD00211220FFF762
:1020500067FD0021DB20FFF763FD00214020FFF733
:102060005FFD00212020FFF75BFD00210220FFF72C
:1020700057FD00218D20FFF753FD00211420FFF7AD
:102080004FFD0021A420FFF74BFD0021A620FFF704
:1020900047FD0021AF20FFF743FDFFF77FFD002143
:1020A0000846FFF749FD10BD0000000000000000D9
:1020B0009000002010B504466FF0040000F092F983
:1020C000E11704EB5171C1F3C701394A1170104691
:1020D000007800EB4001C1EBC0104FF6FF7101EA40
:1020E000C0003449088010BD0146314A12784A4385
:1020F0004FF0E0235A6100229A611A46126942F0B9
:1021000001021A6100BF4FF0E022106900F00102E5
:102110001AB100F48032002AF5D04FF0E0221269A3
:1021200022F001024FF0E0231A6100229A61704709
:102130000146204A12884A434FF0E0235A610022A8
:102140009A611A46126942F001021A6100BF4FF00B
:10215000E022106900F001021AB100F48032002A76
:10216000F5D04FF0E022126922F001024FF0E02397
:102170001A6100229A61704770B504464FF40770E7
:1021800094FBF0F0C6B24FF4077094FBF0F100FB43
:10219000114085B205E04FF40770FFF7C9FF701ECC
:1021A000C6B2002EF7D115B12846FFF7C1FF70BDAA
:1021B000100400201204002000BF704700BF4C4AEA
:1021C000128802F04002002AF9D0C2B2484B9A802D
:1021D000704710B588B004460121084601F0C0FCE4
:1021E0000121102001F016FD07220921414800F0CD
:1021F00028FA07220A213F4800F023FA4FF4C06072
:10220000069002208DF81C008DF81D0000208DF82E
:102210001E0001208DF81F0006A9364800F086F93F
:1022200002940020ADF80C00ADF80E00ADF81000DF
:10223000ADF814000C20ADF8120002A92C4800F0F3
:10224000A0FA01212A4800F024FB012240F2255186
:10225000274800F0D4FB25208DF8040003208DF8DA
:1022600005008DF8060001208DF8070001A800F098
:102270006CF808B010BD10B540F225511C4800F0B4
:10228000F9FB10B31A4800F033FBC4B21A480088B7
:1022900000F40040C8B91848008800F4804060B1DC
:1022A0000A2C03D000201449088020E0124800883E
:1022B00040F400401049088019E00D2C06D10E486A
:1022C000008840F480400C49088010E00A480088EB
:1022D000C0F30D0009490C5407480088401C06490A
:1022E000088008460088C72801DD0020088010BD4E
:1022F000001001400000024018040020A404002047
:102300000948804709480047FEE7FEE7FEE7FEE789
:10231000FEE7FEE7FEE7FEE7FEE7FEE704480549C5
:10232000054A064B70470000F905000889010008BE
:10233000D0050020D00B0020D0070020D0070020BF
:1023400032490143324A1160704770B500210023C1
:102350000F22C4781CB32E4C246804F4E064C4F546
:10236000E064C4F30721C1F10404E3B20A414478F4
:102370009C40E1B28478144021430C07210E254C87
:1023800005786155047804F01F050124AC400578F8
:102390006D11AD0005F1E025C5F8004109E00478B4
:1023A00004F01F050124AC401B4D0678761145F85A
:1023B000264070BD194A0A400243154B1B1F1A6084
:1023C000704739B1124A121D12680243104B1B1D8F
:1023D0001A6006E00E4A121D126882430C4B1B1D48
:1023E0001A607047042808D14FF0E021096941F0D4
:1023F00004014FF0E022116107E04FF0E02109698C
:1024000021F004014FF0E022116170470000FA054D
:102410000CED00E000E400E080E100E080FFFF1F41
:1024200010B504469848844208D10121084601F0BD
:1024300002FC0021012001F0FEFB76E0934884427B
:1024400008D10121022001F0F6FB0021022001F059
:10245000F2FB6AE08E48844208D10121042001F099
:10246000EAFB0021042001F0E6FB5EE0894884429B
:1024700008D10121082001F0DEFB0021082001F035
:10248000DAFB52E08448844208D10121102001F097
:10249000D2FB0021102001F0CEFB46E07F488442B1
:1024A00008D10121202001F0C6FB0021202001F0ED
:1024B000C2FB3AE07A48844208D10121402001F071
:1024C000BAFB0021402001F0B6FB2EE075488442A3
:1024D00008D10121802001F0AEFB0021802001F015
:1024E000AAFB22E07048844208D10121801501F046
:1024F000A2FB0021A01501F09EFB16E06B48844270
:1025000008D10121401501F096FB0021601501F072
:1025100092FB0AE06648844207D10121001501F0D0
:102520008AFB0021201501F086FB10BDF0B50A469C
:1025300000210023002400BF3DE0012505FA01F33E
:10254000156805EA03049C4234D105684F00032650
:10255000BE40B543056015794E00B5400668354369
:1025600005601579012D02D01579022D16D18568E7
:102570004F000326BE40B543856055794E00B540F7
:10258000866835438560456801268E40B5434560C1
:10259000456896798E40B6B235434560C5684F00B0
:1025A0000326BE40B543C560D5794E00B540C66828
:1025B0003543C560491C1029BFD3F0BD4FF6FF71EC
:1025C00001600021017141718171C171704708B5CD
:1025D0004FF480320092009A0A430092009AC2613E
:1025E000C161009AC261C2690092C269009208BDCD
:1025F0000246002013690B400BB1012000E00020CF
:1026000070470146086980B270470246002053694E
:102610000B400BB1012000E00020704701464869E3
:1026200080B2704701837047418370470AB10183CC
:1026300000E0418370474161704742694A4042610E
:102640007047F0B5002300244D07ED0E02FA05F3A4
:10265000CE1000F1200555F826504E07F70E0F2634
:10266000BE40B543CF1000F1200646F82750CE10EB
:1026700000F1200555F8265045EA0304CE1000F17C
:10268000200545F82640F0BD00000240000402404D
:1026900000080240000C02400010024000140240FA
:1026A00000180240001C02400020024000240240AA
:1026B0000028024010B50446FA48844208D101219E
:1026C000102001F0FCFA0021102001F0F8FA57E088
:1026D000F548844209D10121480401F0DFFA0021C4
:1026E0004FF4003001F0DAFA4AE0F048844209D1B0
:1026F0000121880401F0D2FA00214FF4802001F07A
:10270000CDFA3DE0EA48844209D10121C80401F034
:10271000C5FA00214FF4002001F0C0FA30E0E5488E
:10272000844209D10121080501F0B8FA00214FF4D3
:10273000801001F0B3FA23E0DF48844208D1012180
:10274000202001F0BCFA0021202001F0B8FA17E0A7
:10275000DA48844209D10121880701F09FFA00215B
:102760004FF0804001F09AFA0AE0D548844207D140
:102770000121400501F092FA0021600501F08EFA76
:1027800010BD2DE9FF4705460E460024A14600BFB7
:10279000A046B08900B100BF2C8A24F44054F088D0
:1027A00004432C82AC8941F20C608443B0883189A7
:1027B0000843718908430443AC81AC8A24F4407413
:1027C000B0890443AC82684601F0F9F8B548854207
:1027D00002D0B948854202D1DDF80C9001E0DDF865
:1027E0000890A88900F4004040B109EBC90000EB53
:1027F000091031684900B0FBF1F707E009EBC900A7
:1028000000EB091031688900B0FBF1F76420B7FBD9
:10281000F0F004012009642101FB1078A88900F47C
:10282000004040B1322000EBC800B0FBF1F000F0F6
:102830000700044308E0322000EB08106421B0FBDD
:10284000F1F000F00F0004432C81BDE8FF874FF446
:102850001651016000218180C18001810C214181DC
:1028600000218181704710B502460020108A20F4B3
:1028700070600B884C8823438C882343CC88234387
:102880001843108210BD0021018041808180C180E9
:10289000704721B1828942F40052828104E082892A
:1028A0004DF6FF731A4082817047028B02F47F421B
:1028B0000283028B0A430283704721B1828942F46A
:1028C0000042828103E08289C2F30E028281704756
:1028D00021B1828A42F40062828204E0828A4FF24D
:1028E000FF731A4082827047C1F3080282807047EA
:1028F00001468888C0F308007047028A4FF6F073DB
:102900001A400282028A0A430282704721B18289F8
:1029100042F00202828104E082894FF6FD731A4080
:102920008281704782894FF2FF731A4082818289C7
:102930000A4382817047028A4FF6DF731A4002828F
:10294000028A0A430282704721B1028A42F480421D
:10295000028204E0028A4BF6FF731A40028270473B
:10296000818941F001018181704721B1828A42F061
:102970000802828204E0828A4FF6F7731A4082824C
:102980007047028BD2B20283028B42EA0122028399
:10299000704721B1828A42F02002828204E0828A5A
:1029A0004FF6DF731A408282704721B1828A42F06B
:1029B0001002828204E0828A4FF6EF731A4082820C
:1029C0007047828A4FF6FB731A408282828A0A43DA
:1029D0008282704721B1828A42F00202828204E040
:1029E000828A4FF6FD731A40828270471AB1838A39
:1029F0000B43838202E0838A8B4383827047F0B566
:102A00000346002400260025002040F66A17B9423C
:102A100000D100BF1846C1F3421401F01F06012780
:102A200007FA06F5012C01D10C3004E0022C01D18B
:102A3000103000E014301AB107682F43076002E03D
:102A40000768AF430760F0BD02460020B1F5007F84
:102A500000D100BF13880B400BB1012000E0002023
:102A6000704701F40072B2F5007F00D100BFCA4385
:102A70000280704770B50246002400230025002024
:102A800040F66A16B14200D100BFC1F3421501F011
:102A90001F03012606FA03F3012D13D19689334053
:102AA00017E00000001001400044004000480040D2
:102AB000004C0040005000400014014000780040ED
:102AC000007C0040022D02D1168A334001E0968A34
:102AD00033400C12012606FA04F41688344013B170
:102AE0000CB1012000E0002070BD10B500220023D1
:102AF00040F66A14A14200D100BF0A12012494409A
:102B0000A3B2DC43048010BD10B50446FE488442E5
:102B100008D10121084601F0D2F80021012001F07E
:102B2000CEF89DE0B4F1804F08D10121084601F0B4
:102B3000B5F80021012001F0B1F891E0F34884429A
:102B400008D10121022001F0A9F80021022001F0A2
:102B5000A5F885E0EE48844208D10121042001F067
:102B60009DF80021042001F099F879E0E9488442B9
:102B700008D10121082001F091F80021082001F07E
:102B80008DF86DE0E448844208D10121102001F065
:102B900085F80021102001F081F861E0DF488442CF
:102BA00008D10121202001F079F80021202001F036
:102BB00075F855E0DA48844208D10121022001F07D
:102BC0007EF80021022001F07AF849E0D5488442DD
:102BD00009D10121080401F072F800214FF480307E
:102BE00001F06DF83CE0D048844209D1012148044D
:102BF00001F065F800214FF4003001F060F82FE09B
:102C0000CA48844209D10121880401F058F8002102
:102C10004FF4802001F053F822E0C548844208D1E7
:102C20000121402001F03AF80021402001F036F85F
:102C300016E0C048844208D10121802001F02EF81E
:102C40000021802001F02AF80AE0BB48844207D125
:102C50000121801501F022F80021A01501F01EF8D5
:102C600010BD00220288A84B98420ED0AC4B98426F
:102C70000BD0B0F1804F08D0A44B984205D0A44BA4
:102C8000984202D0A34B984204D14FF68F731A405A
:102C90004B881A43A04B984207D0A04B984204D0CF
:102CA0004FF6FF431A400B891A4302804B68C362F8
:102CB0000B880385944B984202D0994B984201D1DE
:102CC0008B7A03860123838270474FF0FF31416086
:102CD00000210180018141808172704701858282DB
:102CE00070470A46002101884FF68F73194011433F
:102CF0000180704741627047C16270470146486A6F
:102D000070470146088D704721B1028842F00202E7
:102D1000028004E002884FF6FD731A40028070477B
:102D200021B1028842F00402028004E002884FF6DA
:102D3000FB731A400280704721B1028842F0800282
:102D4000028004E002884FF67F731A4002807047C9
:102D500002884FF6F7731A40028002880A43028005
:102D6000704702884FF6FF431A40028002880A43E8
:102D70000280704721B1028842F00102028004E023
:102D800002884FF6FE731A400280704770B5002427
:102D900000220023058C4FF6FE7635400584028C18
:102DA0008388048B4FF68F752C40B51E2C400D8800
:102DB0002C43751E2A408D892A434D882A43524D43
:102DC000A84202D0564DA84213D14FF6F7752A40BB
:102DD000CD892A434FF6FB752A408D882A434FF64A
:102DE000FF652B404FF6FF552B400D8A2B434D8A34
:102DF0002B43838004838D684563028470BD70B566
:102E0000002400220023058C4FF6EF763540058420
:102E1000028C8388048B48F6FF752C404FF6FF45E3
:102E20002C400D884FF6FF7606EA05252C434FF619
:102E3000DF752A408D8906EA05152A434D8806EA82
:102E400005152A43304DA84202D0354DA8421DD168
:102E50004FF67F752A40CD894FF6FF7606EA0515B5
:102E60002A434FF6BF752A408D8806EA05152A4386
:102E70004FF6FF352B404FF2FF752B400D8A06EAC7
:102E800085052B434D8A06EA85052B438380048301
:102E90008D688563028470BD70B500240022002314
:102EA000058C4FF6FF6635400584028C8388848B41
:102EB0004FF68F752C404FF6FC752C400D882C4337
:102EC0004FF6FF552A408D894FF6FF7606EA052515
:102ED0002A434D8806EA05252A430B4DA84202D015
:102EE0000F4DA84238D14FF2FF752A40CD894FF6D9
:102EF000FF7606EA05252A434FF6FF352A408D88DE
:102F000006EA05252A4319E00000014000040040BC
:102F100000080040000C0040001000400014004079
:102F200000040140004001400044014000480140CD
:102F300000180040001C0040002000404EF6FF75C5
:102F40002B404DF6FF752B400D8A06EA05152B43E5
:102F50004D8A06EA05152B43838084838D68C563FB
:102F6000028470BD70B5002200230024058C4EF64B
:102F7000FF7635400584038C8488828B48F6FF7584
:102F80002A404FF6FF452A400D884FF6FF7606EAA5
:102F900005252A434DF6FF752B408D8906EA053538
:102FA0002B434D8806EA05352B43FE4DA84202D03F
:102FB000FD4DA84208D14BF6FF752C400D8A4FF607
:102FC000FF7606EA85152C43848082838D6805642C
:102FD000038470BD002101804180818081608181F6
:102FE000C18101824182704770B5034600200024F0
:102FF0001846183001258D40ACB21D8CA5431D84A8
:1030000009B108290AD100EB610005684FF68F76F7
:10301000354005600568154305600FE00D1FC5F3D9
:103020004E052844056848F6FF763540056005687A
:103030004FF6FF7606EA02263543056070BD416310
:10304000704781637047C1637047016470470A46E7
:103050000021018B4FF68F73194011430183704794
:103060000A460021018B48F6FF7319404FF6FF73A3
:1030700003EA02231943018370470A460021818B2A
:103080004FF68F7319401143818370470A46002120
:10309000818B48F6FF7319404FF6FF7303EA022352
:1030A0001943818370470A460021018B4FF6F7735D
:1030B00019401143018370470A460021018B4FF2EA
:1030C000FF7319404FF6FF7303EA0223194301838C
:1030D00070470A460021818B4FF6F7731940114360
:1030E000818370470A460021818B4FF2FF7319409C
:1030F0004FF6FF7303EA02231943818370470A46A0
:103100000021018B4FF6FB73194011430183704777
:103110000A460021018B4FF6FF3319404FF6FF732B
:1031200003EA02231943018370470A460021818B79
:103130004FF6FB7319401143818370470A46002103
:10314000818B4FF6FF3319404FF6FF7303EA0223DA
:103150001943818370470A460021018B4FF67F7324
:1031600019401143018370470A460021018BC1F3C6
:103170000E014FF6FF7303EA0223194301837047E0
:103180000A460021818B4FF67F73194011438183DA
:1031900070470A460021818BC1F30E014FF6FF7381
:1031A00003EA02231943818370470A460021018CF8
:1031B0004FF6FD7319401143018470470A46002100
:1031C000018C4FF6F77319401143018470470A468A
:1031D0000021018C4FF6DF7319404FF6FF7303EAAD
:1031E00002131943018470470A460021018C4FF6EF
:1031F0007F7319404FF6FF7303EA021319430184EA
:1032000070470A460021018C4FF6FF5319404FF6D4
:10321000FF7303EA02231943018470470A46002121
:10322000018C4FF2FF7319404FF6FF7303EA02233C
:103230001943018470470A460021018C4DF6FF7343
:1032400019404FF6FF7303EA0233194301847047B4
:1032500030B5002301248C40A3B2048C9C43048429
:10326000048C02FA01F5ADB22C43048430BD30B5B4
:10327000002304248C40A3B2048C9C430484048C5B
:1032800002FA01F5ADB22C43048430BD828B4FF2BB
:10329000FF331A408283828B4FF6FF7303EA0123C8
:1032A0001A4382837047F0B50C4615460021002270
:1032B0000026078C4EF6FF7C07EA0C070784818BFB
:1032C000028C4FF6FF7707EA043640F6FF47394095
:1032D0004FF6FF7707EA052739434FF6FF7707EAEE
:1032E0000337394345F6FF773A4046F480573A436F
:1032F00081830284F0BD828B4FF6F3731A40828380
:10330000828B0A4382837047F0B50C461546002134
:1033100000220026078C4FF6FF6C07EA0C07078493
:10332000818B028C4FF6FF7707EA04264FF60C7765
:1033300039404FF6FF7707EA03172F4339434FF21F
:10334000FF573A4046F480773A4381830284F0BDC8
:10335000028B4FF2FF331A400283028B4FF6FF734A
:1033600003EA01231A4302837047F0B50C46154661
:10337000002100220026078C4FF6EF7C07EA0C079D
:103380000784018B028C4FF6FF7707EA041640F69C
:10339000FF4739404FF6FF7707EA033739434FF6C7
:1033A000FF7703E0000001400004014007EA052721
:1033B00039434FF65F773A4046F010073A430183AE
:1033C0000284F0BD028B4FF6F3731A400283028B26
:1033D0000A4302837047F0B50C46154600210022CF
:1033E000068C4FF6FE773E400684018B028C4FF62A
:1033F0000C7631407E1C06EA03162E4331434FF60D
:10340000F576324044F00106324301830284F0BD78
:1034100070B505460C46208850B92389A28861887A
:103420002846FFF7D8FFE1882846FFF7CBFF25E0C5
:10343000208804280AD12389A28861882846FFF7BA
:1034400094FFE1882846FFF783FF17E020880828CB
:103450000AD12389A28861882846FFF755FFE188B1
:103460002846FFF748FF09E02389A288618828469B
:10347000FFF719FFE1882846FFF708FF70BD00211C
:1034800001804180012181800021C180018170473C
:103490002DE9F04105460C4600260127608808B951
:1034A000022600E00026A088012801D1022700E0C2
:1034B00001272088A0B92389A28861882846FFF7C0
:1034C0008AFFE1882846FFF77DFF23893A46314687
:1034D0002846FFF74AFFE1882846FFF739FF13E047
:1034E0002389A28861882846FFF73FFFE1882846A4
:1034F000FFF72EFF23893A4631462846FFF76BFF38
:10350000E1882846FFF75EFFBDE8F0810146486B81
:1035100070470146886B70470146C86B704701468B
:10352000086C70470A884B881A438B881A43CB88EB
:103530001A430B891A434B891A438B891A43A0F803
:10354000442070470021018041808180C180018139
:1035500041818181704731B1B0F8442042F400428A
:10356000A0F8442005E0B0F84420C2F30E02A0F811
:103570004420704721B1828842F00402828004E036
:1035800082884FF6FB731A408280704721B182888F
:1035900042F00102828004E082884FF6FE731A40F6
:1035A000828070471AB183890B43838102E083894B
:1035B0008B43838170478182704702460020138AC3
:1035C0000B400BB1012000E000207047CA4302828B
:1035D000704730B50246002000230024158A05EA12
:1035E0000103958905EA010413B10CB1012000E043
:1035F000002030BDCA430282704741EA0203A0F8AE
:10360000483070471AB183890B43838102E0838974
:103610008B438381704721B1828842F00802828007
:1036200004E082884FF6F7731A4082807047018960
:103630004FF6F8721140018170470A460021018956
:103640004FF68F73194011430181704730B504461E
:103650000D4629462046FFF7F0FF208940F007007D
:10366000208130BD2DE9F04104460D4616461F4627
:10367000602D06D13B46012231462046FFF775FEFC
:1036800005E03B46012231462046FFF7A4FE2946CD
:103690002046FFF7D2FF208940F007002081BDE8D7
:1036A000F08130B50C4600210189C9B24FF6FF7593
:1036B00005EA0325154325432943018130BD2DE942
:1036C000F04105460E4617469846002443463A46C2
:1036D00031462846FFF7E5FF2C894FF6F870044085
:1036E00044F007044FF68F70044044F070042C81BE
:1036F000BDE8F081F0B504460D4616461F463B4630
:10370000324629462046FFF7CCFF208940F480400E
:103710002081F0BD82884FF68F731A4082808288A4
:103720000A438280704702894FF6F8731A4002817B
:1037300002890A430281704702894FF67F731A405B
:10374000028102890A4302817047F0B50C46154692
:103750001E460021002200230189028B038C4FF6B4
:10376000F877394021434FF6FC473A4040F20117C1
:103770003A434FF6DD773B404FF6FF7707EA0617EF
:103780002F433B43018102830384F0BD21B1828832
:1037900042F08002828004E082884FF67F731A40F4
:1037A00082807047A0F8501070470000F948006808
:1037B00040F00100F74908600020F6490831086030
:1037C000F4480068F4490840F2490860F348091DCC
:1037D0000860F348EF4984310860F0481038091D4B
:1037E0000860EC48006820F48020EA490860002066
:1037F000E8490C310860E7498C31086070470021C6
:10380000E44A921C117011460870704710B50146C9
:103810000022002300204A11012A02D1DD4C236836
:1038200008E0022A03D1DB4C7034236802E0D94C53
:103830007434236801F01F02012494401C400CB131
:10384000012000E0002010BD38B5002000900024C9
:10385000002500BF3120FFF7D9FF05460098401C26
:1038600000900098B0F5A04F01D0002DF2D031208B
:10387000FFF7CCFF08B1012400E00024204638BD4A
:1038800001460020C34A106820F0F80040EAC10059
:1038900010607047C349086070470021BD4A70320C
:1038A00011701170012802D004280AD104E001210E
:1038B000B84A7032117005E00521B64A70321170B5
:1038C00000E000BF00BF7047B7490860704770B59F
:1038D000049C41EA82150126C6EB530645EA0645DB
:1038E000054345EA0465AB4E361D356070BDAD49F4
:1038F00008667047820142EA0172A64B84331A605F
:103900007047A8498866704710B5830143EA016390
:1039100043EA02739F4C8834236010BDA1490867B5
:103920007047A049C864704702460020994B08338D
:10393000186820F0EC6042EA01031843954B083305
:103940001860704702460020924B0833186820F038
:10395000784042EA010318438E4B083318607047E1
:10396000014600208B4A0832106820F0030008430B
:103970001060704787480830006800F00C007047FE
:1039800001460020834A0832106820F0F000084306
:1039900010607047014600207E4A0832106820F40B
:1039A000E05008431060704701460020794A083211
:1039B000106820F4604040EAC10010607047F0B524
:1039C000002100220024022500260223714F08371F
:1039D0003F6807F00C0121B1042905D0082937D12F
:1039E00005E0724F076036E0714F076033E0694FC2
:1039F0003F1D3F68C7F38056664F3F1D3F6807F085
:103A00003F036EB16A4FB7FBF3F7DFF888C10CF1E3
:103A1000040CDCF800C0CCF3881C07FB0CF40CE0B1
:103A2000624FB7FBF3F7DFF86CC10CF1040CDCF864
:103A300000C0CCF3881C07FB0CF4564F3F1D3F68B9
:103A4000C7F301477F1C7D00B4FBF5F7076002E078
:103A5000564F076000BF00BF4E4F08373F6807F062
:103A6000F0010909534F7A5C0768D7404760494F16
:103A700008373F6807F4E051890A4E4F7A5C47687F
:103A8000D7408760434F08373F6807F46041490BD0
:103A9000484F7A5C4768D740C760F0BD002100F40A
:103AA0004072B2F5407F0AD13A4A0832116821F4D7
:103AB000F811414A02401143364A08321160354A32
:103AC00070321268C0F30B031A43324B70331A6022
:103AD00070473549443908607047334940390860B8
:103AE000704736490860704701460020294A8C32E9
:103AF000106820F01F004A1E1043264A8C321060C6
:103B0000704701460020234A8C32106820F4F85098
:103B10004A1E40EA02201F4A8C321060704701465C
:103B200000201C4A8C32106820F4401008431060BA
:103B3000704701460020174A8C32106820F440007C
:103B400008431060704701460020124A8C3210680A
:103B500020F44030084310607047194908607047EE
:103B600039B10C4A3032126802430A4B30331A60C2
:103B700006E0084A303212688243064B30331A603E
:103B80007047F9B1034A343212680243014B3433AF
:103B90001A601CE000380240FFFFF6EA10300024F3
:103BA0000030002000004742800E47420024F4000D
:103BB00040787D011A040020FFFCFF0F5C014742A2
:103BC000E01147428F4A126882438E4B1A60704759
:103BD00039B18C4A121D126802438A4B1B1D1A60B0
:103BE00006E0884A121D12688243864B1B1D1A602C
:103BF000704739B1834A0C3212680243814B0C334F
:103C00001A6006E07F4A0C32126882437D4B0C3307
:103C10001A60704739B17B4A103212680243794BFF
:103C200010331A6006E0774A103212688243754BEF
:103C300010331A60704739B1724A243A126802434D
:103C4000704B243B1A6006E06E4A243A12688243A5
:103C50006C4B243B1A60704739B16A4A203A1268AB
:103C60000243684B203B1A6006E0664A203A12681D
:103C70008243644B203B1A60704739B1614A1C3A59
:103C8000126802435F4B1C3B1A6006E05D4A1C3A17
:103C9000126882435B4B1C3B1A60704739B1594A2A
:103CA000143A12680243574B143B1A6006E0554A17
:103CB000143A12688243534B143B1A60704739B16F
:103CC000504A103A126802434E4B103B1A6006E00D
:103CD0004C4A103A126882434A4B103B1A607047B4
:103CE00039B1484A1C3212680243464B1C331A60F1
:103CF00006E0444A1C3212688243424B1C331A606D
:103D0000704739B13F4A2032126802433D4B20339D
:103D10001A6006E03B4A203212688243394B203356
:103D20001A60704739B1374A243212680243354B62
:103D300024331A6006E0334A243212688243314B3E
:103D400024331A60704739B12E4A2C32126802436C
:103D50002C4B2C331A6006E02A4A2C32126882431C
:103D6000284B2C331A60704739B1264A303212681A
:103D70000243244B30331A6006E0224A3032126884
:103D80008243204B30331A607047012808D11D4907
:103D90003C31096841F008011A4A3C32116007E0E1
:103DA00018493C31096821F00801164A3C3211607B
:103DB000704739B1134A273A12780243114B273B17
:103DC0001A7006E00F4A273A127882430D4B273BC0
:103DD0001A7070470B484030006840F08070094905
:103DE00040310860704701460020064A283A1268B0
:103DF0000A400AB1012000E000207047014926393D
:103E00000870704734380240704700000FB404490E
:103E100010B503AA029800F04DF910BC5DF814FB30
:103E20001404002070B5044685690068C10601D5F8
:103E3000302600E02026C00707D070BDD4E901215C
:103E400030469047206A401C20626D1EF6D570BD3A
:103E500070B5044685690078C00707D170BDD4E904
:103E6000012120209047206A401C20626D1EF6D55B
:103E700070BD00002DE9F041064600241068752948
:103E8000314616A510D0AFF30080002802DA404278
:103E900013A507E031688A0701D512A502E049079A
:103EA00004D511A5012401E0AFF3008000210A220E
:103EB00006F1240709E0B0FBF2FCB0FBF2F302FBD1
:103EC0001C00303078541846491C0028F3D1234692
:103ED0002A463046BDE8F04100F093B800000000EB
:103EE0002D0000002B000000200000002DE9F0470D
:103EF0004FF0000A89460446C0F820A02046E16839
:103F00008847002876D0252806D0D4E9012190479B
:103F1000206A401C2062F1E7E168204600258847BE
:103F2000C4F81CA006460027C4F818A02A2E09D001
:103F3000304600F01FF938B304EB8708303EC8F86C
:103F4000186019E059F8041B204604EB87029161C0
:103F5000E1688847012F064618D1E069002820DA79
:103F600025F020051DE0D8F8180000EB800006EBD6
:103F700040003038C8F818002046E16888470646F7
:103F800000F0F8F80028EED1012F0AD02E2E08D12B
:103F90002046E16888477F1C0646022F45F0200531
:103FA000C4DBA069002803DA404245F00105A061A6
:103FB000E80701D025F01005B6B1A6F14100192897
:103FC00002D8203645F400654A4631462046256031
:103FD0004D46FCF733F958B1012806D0ED1D25F008
:103FE000070000F1080989E704E005F1040985E705
:103FF00030468AE7206ABDE8F0877047704770470F
:1040000070472DE9F0470D4699469246044600F167
:1040100024080168880604D5E06921F010012160B8
:1040200000E00120A84201DD471B00E00027A16954
:104030007A1902EB0900081AA0612078C00602D4A0
:104040002046FFF7EFFE002608E0D4E901211AF828
:1040500006009047206A401C761C20624E45F4DB27
:104060002078C0060AD52046FFF7DCFE06E0D4E93A
:10407000012130209047206A401C2062381EA7F1A1
:104080000107F4DC07E0D4E9012118F805009047A6
:10409000206A401C2062281EA5F10105F3DC2046A1
:1040A000FFF7D6FE2078000602D50220BDE8F08793
:1040B0000120FBE7074B70B50D467B4400F011F87B
:1040C0000446284600F020F810B14FF0FF3070BDD4
:1040D000204670BDFFE0FFFF01694A1C02610878BD
:1040E000704700B58FB0CDE9013100210591054938
:1040F0007944CDE9031011466846FFF7F7FE0FB08B
:1041000000BD0000E5FFFFFF007B00F0800070476E
:10411000754600F02BF8AE4605006946534620F080
:104120000700854618B020B5FEF7F8F8BDE8204036
:104130004FF000064FF000074FF000084FF0000B63
:1041400021F00701AC46ACE8C009ACE8C009ACE816
:10415000C009ACE8C0098D46704710B50446AFF3FE
:1041600000802046BDE81040FCF77CB8004870474E
:104170006C05002030380A2801D201207047002049
:10418000704781F00041704780F00040704721F097
:104190000041704720F000407047000010B591EAE0
:1041A000030F48BF83F0004300F13C82841A71EB97
:1041B000030C05D2121943EB0C03001B61EB0C013D
:1041C000DFF824E14FEA1154A4EB135C1EEA430F1D
:1041D00018BF9EEA445F73D023EA0E03DCF1200E81
:1041E00021EA045143F4801332D322FA0CFE10EB7F
:1041F0000E0023FA0CFE41EB0E01CCF1200E03FA67
:104200000EFE10EB0E0051F10001B1F5801FCCF154
:10421000200E32D201EB045112FA0EF2BDE810402A
:1042200058BF7047401C38BF5FEA420218BF704752
:10423000002814BF20F0010041F100014FEA4103C2
:1042400013F5001F38BF7047A1F1C04100F0D0B98D
:10425000012A43EB0302ACF1200CDCF11F0E32BF4C
:104260004FF0000E23FA0CF310EB030041EB045166
:10427000B4EB115FD0D0A1EB045101F580114908D6
:104280005FEA300001EB04510ED350F1000038BF5B
:1042900012FA0EFE08D1BDE81040C9E7401C38BF35
:1042A0005FEA4202CAD1C3E7BDE810404FEA4103CA
:1042B00013F5001F38BF7047A1F1C04100F098B955
:1042C0009EEA445F08D011EA5E0FBDE8104004BFCB
:1042D00001F0004100207047BDE8104070B500F0CB
:1042E00039F900BF64FBBE3E0000E0FF491058BF33
:1042F000C1F140415B1058BFC3F140438B42EFF323
:10430000008070474FEA41034FEA5353A3F580639F
:10431000D3F11E03C8BFD3F1210C0CDD4FF00042D6
:1043200042EAC12242EA505232FA03FC8CEAE17CB2
:10433000ACEBE1707047102BC4BF0020704703F551
:10434000787CBCF1FF3F04D06FF0004282EA21008C
:10435000704770B500F0FEF8499224800020704745
:10436000F2E7B0FA80F310FA03F10AD0C3F11D03AB
:1043700003F580634FEA41504FEA035202EBD1212B
:1043800070474FF00000704751EA030C17D41CF53A
:10439000801F58BFBCF5801F00F10680994218BFEE
:1043A000704708BF9042704707D711F5801F58BF6C
:1043B00013F5801F19D499427047894270471CF544
:1043C000801F08D5BCF5801FF7D58B4218BF7047FA
:1043D00008BF824270474FF4001C1CEB410F38BFEE
:1043E0001CEB430F01D28B42704770B500F0B2F85E
:1043F000922449004FF000514FF08053FFF776BFF1
:10440000DFF848C170B51CEA111E1EBF1CEA131567
:104410009EEA0C0F95EA0C0F00F06F8081EA03040E
:1044200023EA4C134EEAD47E21EA4C1141F4801168
:1044300043F48013AE44A1FB024CA0FB0365AEF134
:104440007F7E361955EB0C05A1FB034C4CF10003A4
:10445000A0FB021C16EB0C06654153F10003094258
:1044600018BF46F0010613F4007F0BD14FEA033169
:104470004FEA0530340341EA155140EA16506FF017
:1044800003020AE04FEAC3214FEAC520F40241EAE1
:10449000555140EA56506FF0020202EB2E4201EBFA
:1044A000025585EACE710AD05FEA440C18BF24F0A9
:1044B000004450F1000041F1000120EAD47040F2C4
:1044C000FE7C624500D270BDA84214BF4FF080440C
:1044D0004FF04044002E08BF0024BEF1806FA8BFFB
:1044E000A1F1C041BDE8704080F282804FF0000031
:1044F00001F1C04101F0004170479EEA0C0F0CEA47
:10450000131518BF95EA0C0F06D04FF0000081EA92
:10451000030E0EF0004170BD00F01CF88900013E52
:1045200000F007B800F009B84FEA430C5FEA5C5CA2
:1045300008D081EA030100F05BB84FEA410C5FEA62
:104540005C5CF6D14FF00000014970470000FF07A6
:104550000000F87F0EF1020E2EF0030E5EF8046BE1
:10456000364205D4012A43EB030515F5001F12D886
:10457000012841EB010C1CF5001F0CD80ED14FEAAD
:10458000D17C15F5001F0CEB4C0C0CF1020C08BF94
:104590004CEBD37C04E04FF0080C01E04FEAD37CF5
:1045A0000CEB4C0526FA05F606F00706B6F1040CEE
:1045B00006D20EEB860CBDE870404CF0010C604753
:1045C000DFE80CF0090B02024FF000414FF0000051
:1045D000A1F5002170BD19461046012851EB0104D8
:1045E00018BFD4F5001484BF002001F0004170BD55
:1045F0000808A0F500114FEA3101704791EA030F56
:1046000010B581F000413FF5D1AD83F0004300F0DB
:1046100009B8000010B591EA030F48BF83F00043CA
:104620003FF5C4AD841A71EB030C07D212198CF05C
:10463000004C43EB0C03001B61EB0C01DFF8A4E121
:104640004FEA1154A4EB135C1EEA430F18BF9EEA15
:10465000445F00F0B08023EA6E03524221EA045125
:10466000C3EB6E0338BF5B1EDCF1200E25D322FAAC
:104670000CFE10EB0E0043FA0CFE41EB0E01CCF1E8
:10468000200E03FA0EFE10EB0E0051F10001CCF1EA
:10469000200E29D412FA0EF201EB0451BDE81040AD
:1046A00058BF7047401C1CBFB2F1004F7047002834
:1046B0000CBF491C20F00100704712EB020E43EBC7
:1046C000030218BF4FF0010E4EEA4202ACF1200C7B
:1046D000DCF11E0E54D943FA0CFE10EB0E0051F122
:1046E000FF31CCF11E0ED5D50EF1010E12FA0EFEE1
:1046F000404141EB010101EB445C5FEA5C5C10D995
:1047000010EBDE7001EB045138BFBEF1004FBDE885
:10471000104018BF704700280CBF491C20F0010052
:10472000704730D24FEAD42C11F5001124F4006404
:104730001BD0B1FA81F20B3AA41AA41ED2F12003C5
:10474000914030FA03F31943904001EBCC71002CF7
:1047500001EB0451BDE81040A8BF704701F1C04112
:104760004FF0000001F000417047B0FA80F310FAFA
:1047700003F100D110BDE41A173C4805C90AE4E76B
:1047800001EB045110BD491001EB0451BDE810408C
:104790004FEA300002E04FF0000170474A0008BFC6
:1047A0000042F8D0B2F5001F28BF704701F0004169
:1047B0004FF0000070479EEA445F07D011EA5E0F99
:1047C000BDE8104004BF002100207047BDE8104044
:1047D00070B5FFF7BFFE00BF40DFF63E83F000413B
:1047E000104670470000E0FF4FF04070E1EE100A05
:1047F00070470000000000000000002F00000000D3
:104800000700070000147F147F1400242A7F2A1257
:104810000062640813230036495522500000050346
:10482000000000001C224100000041221C00001476
:10483000083E08140008083E0808000000A06000B8
:104840000008080808080000606000000020100848
:104850000402003E5149453E0000427F40000042B4
:1048600061514946002141454B31001814127F1017
:10487000002745454539003C4A4949300001710946
:10488000050300364949493600064949291E0000FA
:1048900036360000000056360000000814224100A1
:1048A00000141414141400004122140800020151D1
:1048B000090600324959513E007C1211127C007FDA
:1048C00049494936003E41414122007F4141221C75
:1048D000007F49494941007F09090901003E4149DA
:1048E000497A007F0808087F0000417F41000020CE
:1048F00040413F01007F08142241007F404040407A
:10490000007F020C027F007F0408107F003E4141BF
:10491000413E007F09090906003E4151215E007FAA
:10492000091929460046494949310001017F010121
:10493000003F4040403F001F2040201F003F4038C4
:10494000403F006314081463000708700807006103
:104950005149454300007F41410000552A552A55E1
:10496000000041417F000004020102040040404079
:104970004040000001020400002054545478007F9D
:104980004844443800384444442000384444487F74
:1049900000385454541800087E0901020018A4A4D9
:1049A000A47C007F080404780000447D400000409F
:1049B00080847D00007F102844000000417F40007B
:1049C000007C04180478007C08040478003844440F
:1049D000443800FC242424180018242418FC007CEB
:1049E0000804040800485454542000043F44402064
:1049F000003C4040207C001C2040201C003C4030FB
:104A0000403C004428102844001CA0A0A07C004486
:104A100064544C44141414141414000000000000D6
:104A200000000000000000000000000000F800008E
:104A30000000000000333000000000100C06100CD5
:104A40000600000000000000000040C07840C07870
:104A50004000043F04043F040400007088FC083058
:104A60000000001820FF211E0000F008F000E018F0
:104A7000000000211C031E211E0000F008887000A9
:104A800000001E2123241927211010160E000000FB
:104A900000000000000000000000000000E018041A
:104AA0000200000000071820400000020418E00087
:104AB00000000040201807000000404080F08040C7
:104AC00040000202010F01020200000000F000009D
:104AD00000000101011F01010100000000000000B1
:104AE000000080B070000000000000000000000026
:104AF00000000001010101010101000000000000AF
:104B00000000003030000000000000000000806065
:104B10001804006018060100000000E010080810EA
:104B2000E000000F102020100F00001010F800000F
:104B300000000020203F20200000007008080888A6
:104B40007000003028242221300000300888884876
:104B500030000018202020110E000000C02010F8A6
:104B6000000000070424243F240000F80888880877
:104B700008000019212020110E0000E0108888187C
:104B80000000000F112020110E0000380808C8385E
:104B900008000000003F000000000070880808883E
:104BA0007000001C222121221C0000E010080810C7
:104BB000E0000000312222110F00000000C0C00000
:104BC0000000000000303000000000000080000005
:104BD0000000000080600000000000008040201005
:104BE00008000001020408102000404040404040FE
:104BF0004000040404040404040000081020408061
:104C00000000002010080402010000704808080895
:104C1000F0000000003036010000C030C828E81065
:104C2000E0000718272423140B000000C038E00020
:104C30000000203C23020227382008F8888888706A
:104C40000000203F202020110E00C0300808080876
:104C50003800071820202010080008F8080808105D
:104C6000E000203F202020100F0008F88888E80886
:104C70001000203F20202320180008F88888E8082A
:104C80001000203F200003000000C0300808083852
:104C9000000007182020221E020008F80800000863
:104CA000F808203F210101213F20000808F80808EA
:104CB00000000020203F2020000000000808F80825
:104CC0000800C08080807F00000008F888C0281895
:104CD0000800203F20012638200008F808000000C6
:104CE0000000203F20202020300008F8F800F8F8CD
:104CF0000800203F003F003F200008F830C00008B7
:104D0000F808203F200007183F00E01008080810AE
:104D1000E0000F10202020100F0008F808080808F5
:104D2000F000203F210101010000E01008080810F8
:104D3000E0000F18242438504F0008F8888888882D
:104D40007000203F2000030C302000708808080805
:104D500038000038202121221C00180808F8080813
:104D600018000000203F2000000008F8080000089C
:104D7000F808001F202020201F000878880000C8A5
:104D80003808000007380E010000F80800F8000895
:104D9000F800033C0700073C03000818688080689F
:104DA000180820302C03032C30200838C800C838DD
:104DB00008000000203F2000000010080808C83844
:104DC00008002038262120201800000000FE0202E2
:104DD00002000000007F40404000000C30C0000096
:104DE0000000000000010638C00000020202FE00C0
:104DF0000000004040407F0000000000040202026A
:104E0000040000000000000000000000000000009E
:104E1000000080808080808080800002020400008A
:104E20000000000000000000000000008080808082
:104E300000000019242222223F2008F80080800070
:104E40000000003F112020110E0000000080808033
:104E50000000000E1120202011000000008080883A
:104E6000F800000E112020103F200000808080807C
:104E70000000001F222222221300008080F0888878
:104E800088180020203F20200000000080808080C3
:104E90008000006B94949493600008F800808080F8
:104EA0000000203F210000203F2000809898000053
:104EB00000000020203F2020000000000080989883
:104EC000000000C08080807F000008F80000808023
:104ED0008000203F24022D302000000808F8000048
:104EE00000000020203F2020000080808080808003
:104EF0008000203F20003F20003F80800080808095
:104F00000000203F210000203F20000080808080A2
:104F10000000001F202020201F00808000808000D3
:104F2000000080FFA12020110E0000000080808082
:104F30008000000E112020A0FF80808080008080F3
:104F4000800020203F212000010000008080808020
:104F500080000033242424241900008080E0808015
:104F600000000000001F2020000080800000008062
:104F70008000001F202020103F20808080000080C3
:104F8000808000010E3008060100808000800080D3
:104F900080800F300C030C300F0000808000808078
:104FA00080000020312E0E312000808080000080A3
:104FB000808080818E701806010000808080808053
:104FC00080000021302C2221300000000000807C75
:104FD000020200000000003F404000000000FF000F
:104FE000000000000000FF0000000002027C8000C2
:104FF00000000040403F00000000000601010202E6
:105000000404000000000000000000002C50000814
:10501000000000202C040000C4010008B451000866
:105020002C040020A4070000200200080111847A4B
:10503000030A000968010203040607080952041B59
:10504000F010012AFF050215F01B0F04012AFF05CD
:1050500002130F18094040405F55555575041A5FFB
:105060000C091121080C11200F0949897909090936
:105070000F201F112FFE02424ACA4A0304134202A4
:10508000FE000E14FF40504C4340404F50505C40D7
:10509000FF1BF888012AFF050215F81B1F08012ACB
:1050A0007F200B109F80E23B808201000916E2A264
:1050B000928A86828080041840807F172424A4FE70
:1050C000A3221B22CCAA011415080601FF2B010400
:1050D000010511FF0202025808101010FF1090087D
:1050E000C3021108080F100444827F0180804043EE
:1050F0002C10284681A018094040484848C8784FDD
:105100000605154848404000091503121222225294
:105110008A063C106080BA19040B11C030FB1E4097
:105120004043407F061C7F424106094FC029410889
:105130000B1110D030FF30D0121C10101F3D08048E
:1051400002019E0D1101020408211116FE222222E5
:10515000FE0712FE828292A29E100880601F024209
:10516000827F0F11FF402F102C438011000B1490F1
:10517000884C57A42454548C84180801018042227E
:105180001A07441D423E01018AF9E1000D14E4248E
:105190002CB4252624B42C24E404180AFF02011E92
:1051A0001212121E418601202D010203040425065D
:0451B00007080900E3
:040000050800018965
:00000001FF
